:10007300E4FEEFC4131313540124FF92B4EF25E0FD
:0D008300FFC2B6D2B60EBE08E9C2B5D2B5B6
:01009000224D
:10005100AB07AF05120073AF03A8077480088002D5
:10006100C313D8FCF4F5807F017E001200917580E6
:02007100FF226C
:10000300C2B6C2B57D3C7C00E4FF1200517D427C48
:10001300007F011200517DA97C007F021200517DF7
:10002300857C007F031200517D857C007F041200D4
:10003300517DA97C007F051200517D427C007F0623
:0E0043001200517D3C7C007F0712005180B6F8
:10009100EF1FAC0670011E4C600A7D027CC7DCFEBE
:0400A100DDFC80EC16
:0100A5002238
:030000000200A655
:0C00A600787FE4F6D8FD758107020003A6
:00000001FF
