:10018C007D037C007F011200F97D2E7C007F011223
:10019C0000F9E4FDFC7F021200F97D027C007F0374
:1001AC001200F97D037C007F041200F97D027C00B3
:0701BC007F051200F980C964
:1001C300EF1FAC0670011E4C600A7D027CC7DCFE8B
:0401D300DDFC80ECE3
:0101D7002205
:0A01E4003F065B4F666D7D077F6FDD
:0600F9008F088C098D0A3E
:1000FF00780B7C007D007BFF7A0179E47E007F0A1C
:10010F001200D3E50814B40800505490012875F07C
:10011F0003A4C58325F0C583730201400201440285
:10012F00014802014C020150020158020160020114
:10013F0068D2A4800ED2A48012D2A48016D2A4803A
:10014F001AC2A4D2A3D2A28016C2A4D2A3C2A280E2
:10015F000EC2A4C2A3D2A28006C2A4C2A3C2A2741A
:10016F000B250AF8E6F580E50A642E45097003753C
:0C017F0080807F017E001201C3E4F58047
:01018B002251
:030000000201D822
:0C01D800787FE4F6D8FD75811402018CDC
:10000300E709F608DFFA8046E709F208DFFA803EDF
:1000130088828C83E709F0A3DFFA8032E309F608CC
:10002300DFFA8078E309F208DFFA807088828C8334
:10003300E309F0A3DFFA806489828A83E0A3F608E8
:10004300DFFA805889828A83E0A3F208DFFA804CC2
:1000530080D280FA80C680D4806980F28033801099
:1000630080A680EA809A80A880DA80E280CA803302
:1000730089828A83ECFAE493A3C8C582C8CCC5837A
:10008300CCF0A3C8C582C8CCC583CCDFE9DEE7804A
:100093000D89828A83E493A3F608DFF9ECFAA9F0C9
:1000A300EDFB2289828A83ECFAE0A3C8C582C8CC1F
:1000B300C583CCF0A3C8C582C8CCC583CCDFEADE38
:1000C300E880DB89828A83E493A3F208DFF980CC9A
:1000D30088F0EF60010E4E60C388F0ED2402B40493
:1000E3000050B9F582EB2402B4040050AF2323453A
:0600F3008223900053730C
:00000001FF
