:10000E0000207FF8B40201010000193F7C57010067
:10001E000000193F7C570100000001021C3C7B5878
:10002E000000193F7C57010000207FF8B402010147
:10003E00201020FFF826120800C020FFFA24C0006E
:10004E000000307FFEA100000000207FFAAC2040AF
:10005E000000307FF8B600000000307FF8B60000D8
:10006E0000032478F8B6010000207FF8B4020100E6
:10007E0000011B3C7C560100000001021C3C7B5819
:10008E000000193E7C56010000103F7C5A01000012
:10009E00000001021C3C7B580000193E7C560100FA
:1000AE0000207FF8B40201000000193E7C560100CA
:1000BE00000001021C3C7B580000193E7C560100DA
:1000CE0000207FF8B40201000000193E7C560100AA
:1000DE00000001021C3C7B580000193E7C560100BA
:1000EE0000207FF8B40201000000193E7C5601008A
:0800FE00000001021C3C7B58CC
:03025300010A009D
:1001E800120227E4F50BE50B250A90000E93FD7C1F
:1001F80000AF0B1201C6050BE50BC3940840E7805E
:01020800E213
:03000B000201925D
:04019200C0E0C0D039
:10019600758CFC758A660509E50970020508C39425
:1001A60058E508940240147508007509007408257E
:0B01B6000AF50AD394F04003750A001C
:0501C100D0D0D0E032B7
:10023E00EF1FAC0670011E4C600A7D027CC7DCFE0F
:04024E00DDFC80EC67
:010252002289
:10020900E4FEEFC4131313540124FF92B4EF25E065
:0D021900FFC2B6D2B60EBE08E9C2B5D2B51E
:0102260022B5
:05000300C2B6C2B522E7
:1001C600AB07AF05120209AF03A8077480088002C7
:1001D600C313D8FCF4F5807F017E0012023E7580C1
:0201E600FF22F6
:100227005389F0438901758A66758CFCC28DD28C1F
:07023700D2A9D2AFC2B92227
:03000000020106F4
:0C010600787FE4F6D8FD75810B02014DF6
:100112000201E8E493A3F8E493A34003F68001F21A
:1001220008DFF48029E493A3F85407240CC8C333EE
:10013200C4540F4420C8834004F456800146F6DFBD
:10014200E4800B0102040810204080900253E47EF8
:10015200019360BCA3FF543F30E509541FFEE493B2
:10016200A360010ECF54C025E060A840B8E493A379
:10017200FAE493A3F8E493A3C8C582C8CAC583CAA4
:10018200F0A3C8C582C8CAC583CADFE9DEE780BE5C
:0102560000A7
:00000001FF
