:03014A00010800A9
:040131007F147E00B9
:10013500EF1FAC0670011E4C600A7D027CC7DCFE19
:04014500DDFC80EC71
:010149002293
:1000030075A0FE20B12512013130B1FD1201310579
:1000130008E508C394084003E4F508AF08A807748B
:1000230001088002C333D8FCF4F5A020B0241201E8
:100033003130B0FD120131E5087005750807800203
:100043001508AF08A8077401088002C333D8FCF46D
:10005300F5A020B21012013130B2FD1201310508B2
:10006300E508F4F5A020B39B12013130B3FD120172
:100073003130B08F12013130B0FD1201310508E586
:1000830008C394084003E4F5087FC87E00120135D5
:10009300AF08A8077401088002C333D8FCF4F5A0A5
:0200A30080CF0C
:030000000200A556
:0C00A500787FE4F6D8FD7581080200ECBD
:1000B100020003E493A3F8E493A34003F68001F262
:1000C10008DFF48029E493A3F85407240CC8C33350
:1000D100C4540F4420C8834004F456800146F6DF1F
:1000E100E4800B010204081020408090014AE47E64
:1000F100019360BCA3FF543F30E509541FFEE49314
:10010100A360010ECF54C025E060A840B8E493A3DA
:10011100FAE493A3F8E493A3C8C582C8CAC583CA05
:10012100F0A3C8C582C8CAC583CADFE9DEE780BEBD
:01014D0000B1
:00000001FF
