:1004590050617373776F72643A004F4B5F5F004D61
:0404690049535300A0
:10018C0012046D7BFF7A0479597D017F011203D033
:10019C001200038F1CE51C60F7D3940A5041C3E591
:1001AC00199404E51894005028AE1AAF1B7C007DFE
:1001BC000A12028B8E1A8F1BE51C75F00A84E5F06F
:1001CC00251BF51BE4351AF51A0519E519700205FE
:1001DC0018750C04AB1BAA1A7D017F02120411E5E1
:1001EC001C640E704DE51BB4291DE51AB409187B6F
:1001FC00FF7A0479637D0D7F011203D0E4F51AF5C3
:10020C001BF518F519802B7BFF7A0479687D0D7F1F
:10021C00011203D0E4F51AF51BF518F5197F207EB1
:10022C0003120444750C04AB1BAA1A7D017F021245
:10023C000411E51CB40F05E4F51AF51BE4F518F5EB
:10024C0019750C04AB1BAA1A7D017F021204110252
:02025C00019C03
:10044400EF1FAC0670011E4C600A7D027CC7DCFE07
:04045400DDFC80EC5F
:010458002281
:06048100C2A58F80D2A786
:080487007F027EEFDEFEDFFCC8
:01048F00224A
:0A049C00C2A6120481C2A702048761
:1003F300CFCDCFCECCCE12029D7C007D0A12029DC2
:04040300ED2430FFB5
:0A040700D2A6120481C2A7020487E6
:10042E00AE07BE0104ED148006BE0209ED243F4462
:06043E0080FF12049C2265
:10046D007F3812049C7F0C12049C7F0612049C7F23
:04047D000102049CD8
:0A04A600AC0312042EAF0402040799
:0603D0008B088A09890A6E
:1003D60012042EE4FDAB08AA09A90A8D82758300D2
:0C03E60012025EFF60061204070D80E9A1
:0103F20022E8
:0C039D007F0AEA24FFFDE434FFFC7E0030
:0803A9008E0D8F0E8C0F8D10DC
:1003B1007F017E00E4FBEBC39510E50F6480F874C8
:0E03C1008098500AAC0DAD0E12028B0B80E836
:0103CF00220B
:040411008A0A8B0BBD
:1004150012042EAA0CEAD39400400D12039DAC0AD7
:08042500AD0B1203F31A80ED88
:01042D0022AC
:1002F20012042EC3EA64809480400B7F2B12040701
:100302008A168B17800E7F2D120407C3E49BF51704
:10031200E49AF516AA15EAD39400400D12039DAC97
:0903220016AD171203F31A80ED69
:01032B0022AF
:04032C008A1F8B2079
:1003300012042EAA21EAD3940040297F1012039FB1
:10034000AC1FAD20CFCDCFCECCCE12029DEF540F3F
:10035000FEC3940AEE5004243080022437FF1204B6
:04036000071A80D127
:010364002276
:040365008A248B2536
:1003690012042EAA26EAD394004028EA24FFFDE4C9
:1003790034FFFC7F027E001203A9AC24AD25CFCD4A
:10038900CFCECCCE12029DEF54012430FF120407C8
:030399001A80D2F5
:01039C00223E
:10000300E4F5087590FEC2932097137F14FE120443
:10001300443097FD7F147E00120444750801209636
:10002300147F147E001204443096FD7F147E001268
:1000330004447508042095147F147E001204443090
:1000430095FD7F147E001204447508072094147FE5
:10005300147E001204443094FD7F147E0012044485
:1000630075080A7590FEC2922097147F147E0012C1
:1000730004443097FD7F147E001204447508022067
:1000830096147F147E001204443096FD7F147E0084
:100093001204447508052095147F147E001204444D
:1000A3003095FD7F147E00120444750808209414D3
:1000B3007F147E001204443094FD7F147E001204EA
:1000C3004475080E7590FEC2912097147F147E002C
:1000D3001204443097FD7F147E0012044475080314
:1000E3002096147F147E001204443096FD7F147E04
:1000F300001204447508062095147F147E00120430
:10010300443095FD7F147E00120444750809209441
:10011300147F147E001204443094FD7F147E001279
:10012300044475080F7590FEC2902097147F147EC7
:10013300001204443097FD7F147E001204447508B6
:10014300042096147F147E001204443096FD7F141D
:100153007E001204447508082095147F147E001253
:1001630004443095FD7F147E0012044475080C206E
:1001730094147F147E001204443094FD7F147E0097
:08018300120444750810AF08D6
:01018B002251
:0300000002049067
:0C049000787FE4F6D8FD75812602018C0F
:10025E00BB010CE58229F582E5833AF583E0225055
:10026E0006E92582F8E622BBFE06E92582F8E2229F
:0D027E00E58229F582E5833AF583E49322B9
:10028B00EF8DF0A4A8F0CF8CF0A428CE8DF0A42E87
:02029B00FE2241
:10029D00BC000BBE0029EF8DF084FFADF022E4CC45
:1002AD00F875F008EF2FFFEE33FEEC33FCEE9DEC0E
:1002BD00984005FCEE9DFE0FD5F0E9E4CEFD22ED54
:1002CD00F8F5F0EE8420D21CFEADF075F008EF2F9E
:1002DD00FFED33FD4007985006D5F0F222C398FD8F
:0502ED000FD5F0EA222C
:00000001FF
