:1003E10075A0FE12043C12022B8F20E52060F7B4A9
:1003F10001F40521E521C3940240EBE4F52180E6F7
:03000B0002028C62
:0B028C00C0E0C0D075D000C000C0076B
:10029700758CFC758A66051FE51F7002051EC394E1
:1002A700F4E51E94014029751E00751F00E52170B5
:1002B7000DAFA07801EF08800103D8FDF5A0E52177
:1002C700B4010DAFA07801EF08800123D8FDF5A098
:0902D700D007D000D0D0D0E032F5
:06049200C2A58F80D2A775
:080498007F027EEFDEFEDFFCB7
:0104A0002239
:0A04AD00C2A6120492C2A70204982E
:10040100CFCDCFCECCCE1201D67C007D0A1201D643
:04041100ED2430FFA7
:0A041500D2A6120492C2A7020498B6
:10045300AE07BE0104ED148006BE0209ED243F443D
:0604630080FF1204AD222F
:10047E007F381204AD7F0C1204AD7F061204AD7FDF
:04048E00010204ADB6
:0A04B700AC03120453AF0402041555
:0603BE008B268A27892826
:1003C400120453E4FDAB26AA27A9288D8275830065
:0C03D400120197FF60061204150D80E96D
:0103E00022FA
:0C038B007F0AEA24FFFDE434FFFC7E0042
:080397008E228F238C248D259A
:10039F007F017E00E4FBEBC39525E5246480F874B0
:0E03AF008098500AAC22AD231201C40B80E8E6
:0103BD00221D
:04041F008A118B12A1
:10042300120453AA13EAD39400400D12038BAC11A8
:08043300AD121204011A80ED64
:01043B00229E
:1002E000120453C3EA64809480400B7F2B120415E0
:1002F0008A0D8B0E800E7F2D120415C3E49BF50E24
:10030000E49AF50DAA0CEAD39400400D12038BACCD
:090310000DAD0E1204011A80ED7E
:0103190022C1
:04031A008A168B179D
:10031E00120453AA18EAD3940040297F1012038DB9
:10032E00AC16AD17CFCDCFCECCCE1201D6EF540F2B
:10033E00FEC3940AEE5004243080022437FF1204C8
:04034E00151A80D12B
:010352002288
:040353008A1B8B1C5A
:10035700120453AA1DEAD394004028EA24FFFDE4BF
:1003670034FFFC7F027E00120397AC1BAD1CCFCD80
:10037700CFCECCCE1201D6EF54012430FF12041594
:030387001A80D207
:01038A002250
:10043C005389F0438901758A66758CFCC28DD28C08
:07044C00D2A9D2AFC2B92210
:10046900EF1FAC0670011E4C600A7D027CC7DCFEE2
:04047900DDFC80EC3A
:01047D00225C
:10000E00E4F5297590FEC2932097137F14FE120417
:10001E00693097FD7F147E001204697529012096C0
:10002E00147F147E001204693096FD7F147E001238
:10003E0004697529042095147F147E00120469301A
:10004E0095FD7F147E001204697529072094147F94
:10005E00147E001204693094FD7F147E0012046930
:10006E0075290A7590FEC2922097147F147E001295
:10007E0004693097FD7F147E0012046975290220F1
:10008E0096147F147E001204693096FD7F147E0054
:10009E001204697529052095147F147E00120469D7
:1000AE003095FD7F147E0012046975290820941482
:1000BE007F147E001204693094FD7F147E001204BA
:1000CE006975290E7590FEC2912097147F147E00DB
:1000DE001204693097FD7F147E001204697529039E
:1000EE002096147F147E001204693096FD7F147ED4
:1000FE00001204697529062095147F147E001204DF
:10010E00693095FD7F147E001204697529092094CB
:10011E00147F147E001204693094FD7F147E001249
:10012E00046975290F7590FEC2902097147F147E76
:10013E00001204693097FD7F147E00120469752940
:10014E00042096147F147E001204693096FD7F14ED
:10015E007E001204697529082095147F147E001202
:10016E0004693095FD7F147E0012046975290C20F8
:10017E0094147F147E001204693094FD7F147E0067
:08018E00120469752910AF2964
:010196002246
:10022B00E4F52A20B1137F14FE12046930B1FD7F6F
:10023B00147E00120469752A0120B0147F147E000D
:10024B0012046930B0FD7F147E00120469752A0216
:10025B0020B2147F147E0012046930B2FD7F147E2D
:10026B0000120469752A0320B3147F147E00120454
:10027B006930B3FD7F147E00120469752A04AF2A1E
:01028B002250
:030000000204A156
:0C04A100787FE4F6D8FD75812A0203E1A3
:10019700BB010CE58229F582E5833AF583E022501D
:1001A70006E92582F8E622BBFE06E92582F8E22267
:0D01B700E58229F582E5833AF583E4932281
:1001C400EF8DF0A4A8F0CF8CF0A428CE8DF0A42E4F
:0201D400FE2209
:1001D600BC000BBE0029EF8DF084FFADF022E4CC0D
:1001E600F875F008EF2FFFEE33FEEC33FCEE9DECD6
:1001F600984005FCEE9DFE0FD5F0E9E4CEFD22ED1C
:10020600F8F5F0EE8420D21CFEADF075F008EF2F65
:10021600FFED33FD4007985006D5F0F222C398FD56
:050226000FD5F0EA22F3
:00000001FF
