:0903A300436C6F636B3A003A00F1
:10000E0012036012031E7BFF7A0379A37D017F0129
:10001E001202C07BFF7A0379AA7D037F021202C00F
:10002E007BFF7A0379AA7D067F021202C012013A83
:10003E008F1AE51BFB7A00750C027D077F021203F7
:10004E0001E51DFB7A00750C027D047F021203018F
:10005E00E51CFB7A00750C027D017F02120301E59F
:10006E001AB4010C051CE51CC394184003E4F51CDE
:10007E00E51AB4020E051DE51DC3943C4005E4F5DA
:10008E001D051CE51AB403A5051BE51BC3943C40D6
:08009E009CE4F51B051D809593
:03000B0002019B54
:04019B00C0E0C0D030
:10019F00758CFC758A660519E51970020518C394EC
:1001AF00E8E51894034027751800751900051BE53D
:1001BF001B943C4019751B00051DE51D943C400E1A
:0E01CF00751D00051CE51C94184003751C00EE
:0501DD00D0D0D0E0329B
:10034B00EF1FAC0670011E4C600A7D027CC7DCFE01
:04035B00DDFC80EC59
:01035F00227B
:06037400C2A58F80D2A794
:08037A007F027EEFDEFEDFFCD6
:010382002258
:0A038F00C2A6120374C2A702037A8B
:1002E300CFCDCFCECCCE1200E57C007D0A1200E547
:0402F300ED2430FFC7
:0A02F700D2A6120374C2A702037A14
:10033500AE07BE0104ED148006BE0209ED243F445C
:0603450080FF12038F226D
:100360007F3812038F7F0C12038F7F0612038F7F5B
:040370000102038FF4
:0A039900AC03120335AF040202F7B3
:0602C0008B088A09890A7F
:1002C600120335E4FDAB08AA09A90A8D82758300DD
:0C02D6001200A6FF60061202F70D80E97E
:0102E20022F9
:0C028D007F0AEA24FFFDE434FFFC7E0041
:080299008E0D8F0E8C0F8D10ED
:1002A1007F017E00E4FBEBC39510E50F6480F874D9
:0E02B1008098500AAC0DAD0E1200D30B80E801
:0102BF00221C
:040301008A0A8B0BCE
:10030500120335AA0CEAD39400400D12028DAC0AF3
:08031500AD0B1202E31A80EDAA
:01031D0022BD
:1001E200120335C3EA64809480400B7F2B1202F71E
:1001F2008A168B17800E7F2D1202F7C3E49BF51728
:10020200E49AF516AA15EAD39400400D12028DACB9
:0902120016AD171202E31A80ED8B
:01021B0022C0
:04021C008A208B2188
:10022000120335AA22EAD3940040297F1012028FCC
:10023000AC20AD21CFCDCFCECCCE1200E5EF540F08
:10024000FEC3940AEE5004243080022437FF1202C9
:04025000F71A80D148
:010254002287
:040255008A258B2645
:10025900120335AA27EAD394004028EA24FFFDE4D3
:1002690034FFFC7F027E00120299AC25AD26CFCD6A
:10027900CFCECCCE1200E5EF54012430FF1202F7A5
:030289001A80D206
:01028C00224F
:10031E005389F0438901758A66758CFCC28DD28C27
:07032E00D2A9D2AFC2B9222F
:10013A00E4F50820B1137F14FE12034B30B1FD7FA2
:10014A00147E0012034B75080120B0147F147E0040
:10015A0012034B30B0FD7F147E0012034B75080268
:10016A0020B2147F147E0012034B30B2FD7F147E3E
:10017A000012034B75080320B3147F147E00120388
:10018A004B30B3FD7F147E0012034B750804AF0891
:01019A002242
:0300000002038375
:0C038300787FE4F6D8FD75812702000E9B
:1000A600BB010CE58229F582E5833AF583E022500F
:1000B60006E92582F8E622BBFE06E92582F8E22259
:0D00C600E58229F582E5833AF583E4932273
:1000D300EF8DF0A4A8F0CF8CF0A428CE8DF0A42E41
:0200E300FE22FB
:1000E500BC000BBE0029EF8DF084FFADF022E4CCFF
:1000F500F875F008EF2FFFEE33FEEC33FCEE9DECC8
:10010500984005FCEE9DFE0FD5F0E9E4CEFD22ED0D
:10011500F8F5F0EE8420D21CFEADF075F008EF2F57
:10012500FFED33FD4007985006D5F0F222C398FD48
:050135000FD5F0EA22E5
:00000001FF
