:0A01D8003F065B4F666D7D077F6FE9
:0401B3007F147E0037
:1001B700EF1FAC0670011E4C600A7D027CC7DCFE97
:0401C700DDFC80ECEF
:0101CB002211
:0600F9008F088C098D0A3E
:1000FF00780B7C007D007BFF7A0179D87E007F0A28
:10010F001200D3E50814B40800505490012875F07C
:10011F0003A4C58325F0C583730201400201440285
:10012F00014802014C020150020158020160020114
:10013F0068D2A4800ED2A48012D2A48016D2A4803A
:10014F001AC2A4D2A3D2A28016C2A4D2A3C2A280E2
:10015F000EC2A4C2A3D2A28006C2A4C2A3C2A2741A
:10016F000B250AF8E6F5807F017E001201B7E4F552
:01017F0080FF
:01018000225C
:100181007D017C007F011200F91201B37D027C0028
:100191007F021200F91201B37D037C007F0312007C
:1001A100F91201B37D047C007F041200F91201B33E
:0201B10080CEFE
:030000000201CC2E
:0C01CC00787FE4F6D8FD758114020181F3
:10000300E709F608DFFA8046E709F208DFFA803EDF
:1000130088828C83E709F0A3DFFA8032E309F608CC
:10002300DFFA8078E309F208DFFA807088828C8334
:10003300E309F0A3DFFA806489828A83E0A3F608E8
:10004300DFFA805889828A83E0A3F208DFFA804CC2
:1000530080D280FA80C680D4806980F28033801099
:1000630080A680EA809A80A880DA80E280CA803302
:1000730089828A83ECFAE493A3C8C582C8CCC5837A
:10008300CCF0A3C8C582C8CCC583CCDFE9DEE7804A
:100093000D89828A83E493A3F608DFF9ECFAA9F0C9
:1000A300EDFB2289828A83ECFAE0A3C8C582C8CC1F
:1000B300C583CCF0A3C8C582C8CCC583CCDFEADE38
:1000C300E880DB89828A83E493A3F208DFF980CC9A
:1000D30088F0EF60010E4E60C388F0ED2402B40493
:1000E3000050B9F582EB2402B4040050AF2323453A
:0600F3008223900053730C
:00000001FF
